{
    "_format": "hh-sol-artifact-1",
    "contractName": "MyTestNFT",
    "sourceName": "contracts/MyTestNFT.sol",
    "abi": [
        {
            "inputs": [],
            "stateMutability": "nonpayable",
            "type": "constructor"
        },
        {
            "anonymous": false,
            "inputs": [
                {
                    "indexed": true,
                    "internalType": "address",
                    "name": "owner",
                    "type": "address"
                },
                {
                    "indexed": true,
                    "internalType": "address",
                    "name": "approved",
                    "type": "address"
                },
                {
                    "indexed": true,
                    "internalType": "uint256",
                    "name": "tokenId",
                    "type": "uint256"
                }
            ],
            "name": "Approval",
            "type": "event"
        },
        {
            "anonymous": false,
            "inputs": [
                {
                    "indexed": true,
                    "internalType": "address",
                    "name": "owner",
                    "type": "address"
                },
                {
                    "indexed": true,
                    "internalType": "address",
                    "name": "operator",
                    "type": "address"
                },
                {
                    "indexed": false,
                    "internalType": "bool",
                    "name": "approved",
                    "type": "bool"
                }
            ],
            "name": "ApprovalForAll",
            "type": "event"
        },
        {
            "anonymous": false,
            "inputs": [
                {
                    "indexed": true,
                    "internalType": "address",
                    "name": "from",
                    "type": "address"
                },
                {
                    "indexed": true,
                    "internalType": "address",
                    "name": "to",
                    "type": "address"
                },
                {
                    "indexed": true,
                    "internalType": "uint256",
                    "name": "tokenId",
                    "type": "uint256"
                }
            ],
            "name": "Transfer",
            "type": "event"
        },
        {
            "inputs": [
                {
                    "internalType": "address",
                    "name": "to",
                    "type": "address"
                },
                {
                    "internalType": "uint256",
                    "name": "tokenId",
                    "type": "uint256"
                }
            ],
            "name": "approve",
            "outputs": [],
            "stateMutability": "nonpayable",
            "type": "function"
        },
        {
            "inputs": [
                {
                    "internalType": "address",
                    "name": "owner",
                    "type": "address"
                }
            ],
            "name": "balanceOf",
            "outputs": [
                {
                    "internalType": "uint256",
                    "name": "",
                    "type": "uint256"
                }
            ],
            "stateMutability": "view",
            "type": "function"
        },
        {
            "inputs": [
                {
                    "internalType": "uint256",
                    "name": "tokenId",
                    "type": "uint256"
                }
            ],
            "name": "getApproved",
            "outputs": [
                {
                    "internalType": "address",
                    "name": "",
                    "type": "address"
                }
            ],
            "stateMutability": "view",
            "type": "function"
        },
        {
            "inputs": [
                {
                    "internalType": "address",
                    "name": "owner",
                    "type": "address"
                },
                {
                    "internalType": "address",
                    "name": "operator",
                    "type": "address"
                }
            ],
            "name": "isApprovedForAll",
            "outputs": [
                {
                    "internalType": "bool",
                    "name": "",
                    "type": "bool"
                }
            ],
            "stateMutability": "view",
            "type": "function"
        },
        {
            "inputs": [],
            "name": "makeAnTestNFT",
            "outputs": [
                {
                    "internalType": "uint256",
                    "name": "",
                    "type": "uint256"
                }
            ],
            "stateMutability": "nonpayable",
            "type": "function"
        },
        {
            "inputs": [],
            "name": "name",
            "outputs": [
                {
                    "internalType": "string",
                    "name": "",
                    "type": "string"
                }
            ],
            "stateMutability": "view",
            "type": "function"
        },
        {
            "inputs": [
                {
                    "internalType": "uint256",
                    "name": "tokenId",
                    "type": "uint256"
                }
            ],
            "name": "ownerOf",
            "outputs": [
                {
                    "internalType": "address",
                    "name": "",
                    "type": "address"
                }
            ],
            "stateMutability": "view",
            "type": "function"
        },
        {
            "inputs": [
                {
                    "internalType": "address",
                    "name": "from",
                    "type": "address"
                },
                {
                    "internalType": "address",
                    "name": "to",
                    "type": "address"
                },
                {
                    "internalType": "uint256",
                    "name": "tokenId",
                    "type": "uint256"
                }
            ],
            "name": "safeTransferFrom",
            "outputs": [],
            "stateMutability": "nonpayable",
            "type": "function"
        },
        {
            "inputs": [
                {
                    "internalType": "address",
                    "name": "from",
                    "type": "address"
                },
                {
                    "internalType": "address",
                    "name": "to",
                    "type": "address"
                },
                {
                    "internalType": "uint256",
                    "name": "tokenId",
                    "type": "uint256"
                },
                {
                    "internalType": "bytes",
                    "name": "_data",
                    "type": "bytes"
                }
            ],
            "name": "safeTransferFrom",
            "outputs": [],
            "stateMutability": "nonpayable",
            "type": "function"
        },
        {
            "inputs": [
                {
                    "internalType": "address",
                    "name": "operator",
                    "type": "address"
                },
                {
                    "internalType": "bool",
                    "name": "approved",
                    "type": "bool"
                }
            ],
            "name": "setApprovalForAll",
            "outputs": [],
            "stateMutability": "nonpayable",
            "type": "function"
        },
        {
            "inputs": [
                {
                    "internalType": "bytes4",
                    "name": "interfaceId",
                    "type": "bytes4"
                }
            ],
            "name": "supportsInterface",
            "outputs": [
                {
                    "internalType": "bool",
                    "name": "",
                    "type": "bool"
                }
            ],
            "stateMutability": "view",
            "type": "function"
        },
        {
            "inputs": [],
            "name": "symbol",
            "outputs": [
                {
                    "internalType": "string",
                    "name": "",
                    "type": "string"
                }
            ],
            "stateMutability": "view",
            "type": "function"
        },
        {
            "inputs": [
                {
                    "internalType": "uint256",
                    "name": "tokenId",
                    "type": "uint256"
                }
            ],
            "name": "tokenURI",
            "outputs": [
                {
                    "internalType": "string",
                    "name": "",
                    "type": "string"
                }
            ],
            "stateMutability": "view",
            "type": "function"
        },
        {
            "inputs": [
                {
                    "internalType": "address",
                    "name": "from",
                    "type": "address"
                },
                {
                    "internalType": "address",
                    "name": "to",
                    "type": "address"
                },
                {
                    "internalType": "uint256",
                    "name": "tokenId",
                    "type": "uint256"
                }
            ],
            "name": "transferFrom",
            "outputs": [],
            "stateMutability": "nonpayable",
            "type": "function"
        }
    ],
    "bytecode": "0x60806040523480156200001157600080fd5b506040518060400160405280600981526020017f5371756172654e465400000000000000000000000000000000000000000000008152506040518060400160405280600681526020017f5351554152450000000000000000000000000000000000000000000000000000815250816000908051906020019062000096929190620001cf565b508060019080519060200190620000af929190620001cf565b505050620000fd6040518060400160405280601a81526020017f546869732069732074657374204e465420636f6e7472616374210000000000008152506200010360201b62000bab1760201c565b620003ac565b620001a3816040516024016200011a9190620002c0565b6040516020818303038152906040527f41304fac000000000000000000000000000000000000000000000000000000007bffffffffffffffffffffffffffffffffffffffffffffffffffffffff19166020820180517bffffffffffffffffffffffffffffffffffffffffffffffffffffffff8381831617835250505050620001a660201b60201c565b50565b60008151905060006a636f6e736f6c652e6c6f679050602083016000808483855afa5050505050565b828054620001dd9062000336565b90600052602060002090601f0160209004810192826200020157600085556200024d565b82601f106200021c57805160ff19168380011785556200024d565b828001600101855582156200024d579182015b828111156200024c5782518255916020019190600101906200022f565b5b5090506200025c919062000260565b5090565b5b808211156200027b57600081600090555060010162000261565b5090565b60006200028c82620002e4565b620002988185620002ef565b9350620002aa81856020860162000300565b620002b5816200039b565b840191505092915050565b60006020820190508181036000830152620002dc81846200027f565b905092915050565b600081519050919050565b600082825260208201905092915050565b60005b838110156200032057808201518184015260208101905062000303565b8381111562000330576000848401525b50505050565b600060028204905060018216806200034f57607f821691505b602082108114156200036657620003656200036c565b5b50919050565b7f4e487b7100000000000000000000000000000000000000000000000000000000600052602260045260246000fd5b6000601f19601f8301169050919050565b612d3f80620003bc6000396000f3fe608060405234801561001057600080fd5b50600436106100ea5760003560e01c806370a082311161008c578063addeed6611610066578063addeed661461025b578063b88d4fde14610279578063c87b56dd14610295578063e985e9c5146102c5576100ea565b806370a08231146101f157806395d89b4114610221578063a22cb4651461023f576100ea565b8063095ea7b3116100c8578063095ea7b31461016d57806323b872dd1461018957806342842e0e146101a55780636352211e146101c1576100ea565b806301ffc9a7146100ef57806306fdde031461011f578063081812fc1461013d575b600080fd5b61010960048036038101906101049190611dba565b6102f5565b60405161011691906121c0565b60405180910390f35b6101276103d7565b60405161013491906121db565b60405180910390f35b61015760048036038101906101529190611e0c565b610469565b6040516101649190612159565b60405180910390f35b61018760048036038101906101829190611d7e565b6104ee565b005b6101a3600480360381019061019e9190611c78565b610606565b005b6101bf60048036038101906101ba9190611c78565b610666565b005b6101db60048036038101906101d69190611e0c565b610686565b6040516101e89190612159565b60405180910390f35b61020b60048036038101906102069190611c13565b610738565b604051610218919061243b565b60405180910390f35b6102296107f0565b60405161023691906121db565b60405180910390f35b61025960048036038101906102549190611d42565b610882565b005b610263610898565b604051610270919061243b565b60405180910390f35b610293600480360381019061028e9190611cc7565b610963565b005b6102af60048036038101906102aa9190611e0c565b6109c5565b6040516102bc91906121db565b60405180910390f35b6102df60048036038101906102da9190611c3c565b610b17565b6040516102ec91906121c0565b60405180910390f35b60007f80ac58cd000000000000000000000000000000000000000000000000000000007bffffffffffffffffffffffffffffffffffffffffffffffffffffffff1916827bffffffffffffffffffffffffffffffffffffffffffffffffffffffff191614806103c057507f5b5e139f000000000000000000000000000000000000000000000000000000007bffffffffffffffffffffffffffffffffffffffffffffffffffffffff1916827bffffffffffffffffffffffffffffffffffffffffffffffffffffffff1916145b806103d057506103cf82610c44565b5b9050919050565b6060600080546103e690612660565b80601f016020809104026020016040519081016040528092919081815260200182805461041290612660565b801561045f5780601f106104345761010080835404028352916020019161045f565b820191906000526020600020905b81548152906001019060200180831161044257829003601f168201915b5050505050905090565b600061047482610cae565b6104b3576040517f08c379a00000000000000000000000000000000000000000000000000000000081526004016104aa9061239b565b60405180910390fd5b6004600083815260200190815260200160002060009054906101000a900473ffffffffffffffffffffffffffffffffffffffff169050919050565b60006104f982610686565b90508073ffffffffffffffffffffffffffffffffffffffff168373ffffffffffffffffffffffffffffffffffffffff16141561056a576040517f08c379a0000000000000000000000000000000000000000000000000000000008152600401610561906123fb565b60405180910390fd5b8073ffffffffffffffffffffffffffffffffffffffff16610589610d1a565b73ffffffffffffffffffffffffffffffffffffffff1614806105b857506105b7816105b2610d1a565b610b17565b5b6105f7576040517f08c379a00000000000000000000000000000000000000000000000000000000081526004016105ee906122db565b60405180910390fd5b6106018383610d22565b505050565b610617610611610d1a565b82610ddb565b610656576040517f08c379a000000000000000000000000000000000000000000000000000000000815260040161064d9061241b565b60405180910390fd5b610661838383610eb9565b505050565b61068183838360405180602001604052806000815250610963565b505050565b6000806002600084815260200190815260200160002060009054906101000a900473ffffffffffffffffffffffffffffffffffffffff169050600073ffffffffffffffffffffffffffffffffffffffff168173ffffffffffffffffffffffffffffffffffffffff16141561072f576040517f08c379a00000000000000000000000000000000000000000000000000000000081526004016107269061231b565b60405180910390fd5b80915050919050565b60008073ffffffffffffffffffffffffffffffffffffffff168273ffffffffffffffffffffffffffffffffffffffff1614156107a9576040517f08c379a00000000000000000000000000000000000000000000000000000000081526004016107a0906122fb565b60405180910390fd5b600360008373ffffffffffffffffffffffffffffffffffffffff1673ffffffffffffffffffffffffffffffffffffffff168152602001908152602001600020549050919050565b6060600180546107ff90612660565b80601f016020809104026020016040519081016040528092919081815260200182805461082b90612660565b80156108785780601f1061084d57610100808354040283529160200191610878565b820191906000526020600020905b81548152906001019060200180831161085b57829003601f168201915b5050505050905090565b61089461088d610d1a565b8383611115565b5050565b60006108d86040518060400160405280600b81526020017f6d696e74696e67204e4654000000000000000000000000000000000000000000815250610bab565b60006108e46007611282565b90506108f03382611290565b61092f816040518060400160405280601d81526020017f68747470733a2f2f6a736f6e6b65657065722e636f6d2f622f365245510000008152506112ae565b610952604051806060016040528060258152602001612ce5602591398233611322565b61095c60076113c1565b8091505090565b61097461096e610d1a565b83610ddb565b6109b3576040517f08c379a00000000000000000000000000000000000000000000000000000000081526004016109aa9061241b565b60405180910390fd5b6109bf848484846113d7565b50505050565b60606109d082610cae565b610a0f576040517f08c379a0000000000000000000000000000000000000000000000000000000008152600401610a069061237b565b60405180910390fd5b6000600660008481526020019081526020016000208054610a2f90612660565b80601f0160208091040260200160405190810160405280929190818152602001828054610a5b90612660565b8015610aa85780601f10610a7d57610100808354040283529160200191610aa8565b820191906000526020600020905b815481529060010190602001808311610a8b57829003601f168201915b505050505090506000610ab9611433565b9050600081511415610acf578192505050610b12565b600082511115610b04578082604051602001610aec929190612135565b60405160208183030381529060405292505050610b12565b610b0d8461144a565b925050505b919050565b6000600560008473ffffffffffffffffffffffffffffffffffffffff1673ffffffffffffffffffffffffffffffffffffffff16815260200190815260200160002060008373ffffffffffffffffffffffffffffffffffffffff1673ffffffffffffffffffffffffffffffffffffffff16815260200190815260200160002060009054906101000a900460ff16905092915050565b610c4181604051602401610bbf91906121db565b6040516020818303038152906040527f41304fac000000000000000000000000000000000000000000000000000000007bffffffffffffffffffffffffffffffffffffffffffffffffffffffff19166020820180517bffffffffffffffffffffffffffffffffffffffffffffffffffffffff83818316178352505050506114f1565b50565b60007f01ffc9a7000000000000000000000000000000000000000000000000000000007bffffffffffffffffffffffffffffffffffffffffffffffffffffffff1916827bffffffffffffffffffffffffffffffffffffffffffffffffffffffff1916149050919050565b60008073ffffffffffffffffffffffffffffffffffffffff166002600084815260200190815260200160002060009054906101000a900473ffffffffffffffffffffffffffffffffffffffff1673ffffffffffffffffffffffffffffffffffffffff1614159050919050565b600033905090565b816004600083815260200190815260200160002060006101000a81548173ffffffffffffffffffffffffffffffffffffffff021916908373ffffffffffffffffffffffffffffffffffffffff160217905550808273ffffffffffffffffffffffffffffffffffffffff16610d9583610686565b73ffffffffffffffffffffffffffffffffffffffff167f8c5be1e5ebec7d5bd14f71427d1e84f3dd0314c0f7b2291e5b200ac8c7c3b92560405160405180910390a45050565b6000610de682610cae565b610e25576040517f08c379a0000000000000000000000000000000000000000000000000000000008152600401610e1c906122bb565b60405180910390fd5b6000610e3083610686565b90508073ffffffffffffffffffffffffffffffffffffffff168473ffffffffffffffffffffffffffffffffffffffff161480610e9f57508373ffffffffffffffffffffffffffffffffffffffff16610e8784610469565b73ffffffffffffffffffffffffffffffffffffffff16145b80610eb05750610eaf8185610b17565b5b91505092915050565b8273ffffffffffffffffffffffffffffffffffffffff16610ed982610686565b73ffffffffffffffffffffffffffffffffffffffff1614610f2f576040517f08c379a0000000000000000000000000000000000000000000000000000000008152600401610f26906123bb565b60405180910390fd5b600073ffffffffffffffffffffffffffffffffffffffff168273ffffffffffffffffffffffffffffffffffffffff161415610f9f576040517f08c379a0000000000000000000000000000000000000000000000000000000008152600401610f969061227b565b60405180910390fd5b610faa83838361151a565b610fb5600082610d22565b6001600360008573ffffffffffffffffffffffffffffffffffffffff1673ffffffffffffffffffffffffffffffffffffffff16815260200190815260200160002060008282546110059190612576565b925050819055506001600360008473ffffffffffffffffffffffffffffffffffffffff1673ffffffffffffffffffffffffffffffffffffffff168152602001908152602001600020600082825461105c91906124ef565b92505081905550816002600083815260200190815260200160002060006101000a81548173ffffffffffffffffffffffffffffffffffffffff021916908373ffffffffffffffffffffffffffffffffffffffff160217905550808273ffffffffffffffffffffffffffffffffffffffff168473ffffffffffffffffffffffffffffffffffffffff167fddf252ad1be2c89b69c2b068fc378daa952ba7f163c4a11628f55a4df523b3ef60405160405180910390a4505050565b8173ffffffffffffffffffffffffffffffffffffffff168373ffffffffffffffffffffffffffffffffffffffff161415611184576040517f08c379a000000000000000000000000000000000000000000000000000000000815260040161117b9061229b565b60405180910390fd5b80600560008573ffffffffffffffffffffffffffffffffffffffff1673ffffffffffffffffffffffffffffffffffffffff16815260200190815260200160002060008473ffffffffffffffffffffffffffffffffffffffff1673ffffffffffffffffffffffffffffffffffffffff16815260200190815260200160002060006101000a81548160ff0219169083151502179055508173ffffffffffffffffffffffffffffffffffffffff168373ffffffffffffffffffffffffffffffffffffffff167f17307eab39ab6107e8899845ad3d59bd9653f200f220920489ca2b5937696c318360405161127591906121c0565b60405180910390a3505050565b600081600001549050919050565b6112aa82826040518060200160405280600081525061151f565b5050565b6112b782610cae565b6112f6576040517f08c379a00000000000000000000000000000000000000000000000000000000081526004016112ed9061233b565b60405180910390fd5b8060066000848152602001908152602001600020908051906020019061131d929190611a9f565b505050565b6113bc83838360405160240161133a939291906121fd565b6040516020818303038152906040527fe3849f79000000000000000000000000000000000000000000000000000000007bffffffffffffffffffffffffffffffffffffffffffffffffffffffff19166020820180517bffffffffffffffffffffffffffffffffffffffffffffffffffffffff83818316178352505050506114f1565b505050565b6001816000016000828254019250508190555050565b6113e2848484610eb9565b6113ee8484848461157a565b61142d576040517f08c379a00000000000000000000000000000000000000000000000000000000081526004016114249061223b565b60405180910390fd5b50505050565b606060405180602001604052806000815250905090565b606061145582610cae565b611494576040517f08c379a000000000000000000000000000000000000000000000000000000000815260040161148b906123db565b60405180910390fd5b600061149e611433565b905060008151116114be57604051806020016040528060008152506114e9565b806114c884611711565b6040516020016114d9929190612135565b6040516020818303038152906040525b915050919050565b60008151905060006a636f6e736f6c652e6c6f679050602083016000808483855afa5050505050565b505050565b61152983836118be565b611536600084848461157a565b611575576040517f08c379a000000000000000000000000000000000000000000000000000000000815260040161156c9061223b565b60405180910390fd5b505050565b600061159b8473ffffffffffffffffffffffffffffffffffffffff16611a8c565b15611704578373ffffffffffffffffffffffffffffffffffffffff1663150b7a026115c4610d1a565b8786866040518563ffffffff1660e01b81526004016115e69493929190612174565b602060405180830381600087803b15801561160057600080fd5b505af192505050801561163157506040513d601f19601f8201168201806040525081019061162e9190611de3565b60015b6116b4573d8060008114611661576040519150601f19603f3d011682016040523d82523d6000602084013e611666565b606091505b506000815114156116ac576040517f08c379a00000000000000000000000000000000000000000000000000000000081526004016116a39061223b565b60405180910390fd5b805181602001fd5b63150b7a0260e01b7bffffffffffffffffffffffffffffffffffffffffffffffffffffffff1916817bffffffffffffffffffffffffffffffffffffffffffffffffffffffff191614915050611709565b600190505b949350505050565b60606000821415611759576040518060400160405280600181526020017f300000000000000000000000000000000000000000000000000000000000000081525090506118b9565b600082905060005b6000821461178b578080611774906126c3565b915050600a826117849190612545565b9150611761565b60008167ffffffffffffffff8111156117cd577f4e487b7100000000000000000000000000000000000000000000000000000000600052604160045260246000fd5b6040519080825280601f01601f1916602001820160405280156117ff5781602001600182028036833780820191505090505b5090505b600085146118b2576001826118189190612576565b9150600a85611827919061270c565b603061183391906124ef565b60f81b81838151811061186f577f4e487b7100000000000000000000000000000000000000000000000000000000600052603260045260246000fd5b60200101907effffffffffffffffffffffffffffffffffffffffffffffffffffffffffffff1916908160001a905350600a856118ab9190612545565b9450611803565b8093505050505b919050565b600073ffffffffffffffffffffffffffffffffffffffff168273ffffffffffffffffffffffffffffffffffffffff16141561192e576040517f08c379a00000000000000000000000000000000000000000000000000000000081526004016119259061235b565b60405180910390fd5b61193781610cae565b15611977576040517f08c379a000000000000000000000000000000000000000000000000000000000815260040161196e9061225b565b60405180910390fd5b6119836000838361151a565b6001600360008473ffffffffffffffffffffffffffffffffffffffff1673ffffffffffffffffffffffffffffffffffffffff16815260200190815260200160002060008282546119d391906124ef565b92505081905550816002600083815260200190815260200160002060006101000a81548173ffffffffffffffffffffffffffffffffffffffff021916908373ffffffffffffffffffffffffffffffffffffffff160217905550808273ffffffffffffffffffffffffffffffffffffffff16600073ffffffffffffffffffffffffffffffffffffffff167fddf252ad1be2c89b69c2b068fc378daa952ba7f163c4a11628f55a4df523b3ef60405160405180910390a45050565b600080823b905060008111915050919050565b828054611aab90612660565b90600052602060002090601f016020900481019282611acd5760008555611b14565b82601f10611ae657805160ff1916838001178555611b14565b82800160010185558215611b14579182015b82811115611b13578251825591602001919060010190611af8565b5b509050611b219190611b25565b5090565b5b80821115611b3e576000816000905550600101611b26565b5090565b6000611b55611b508461247b565b612456565b905082815260208101848484011115611b6d57600080fd5b611b7884828561261e565b509392505050565b600081359050611b8f81612c88565b92915050565b600081359050611ba481612c9f565b92915050565b600081359050611bb981612cb6565b92915050565b600081519050611bce81612cb6565b92915050565b600082601f830112611be557600080fd5b8135611bf5848260208601611b42565b91505092915050565b600081359050611c0d81612ccd565b92915050565b600060208284031215611c2557600080fd5b6000611c3384828501611b80565b91505092915050565b60008060408385031215611c4f57600080fd5b6000611c5d85828601611b80565b9250506020611c6e85828601611b80565b9150509250929050565b600080600060608486031215611c8d57600080fd5b6000611c9b86828701611b80565b9350506020611cac86828701611b80565b9250506040611cbd86828701611bfe565b9150509250925092565b60008060008060808587031215611cdd57600080fd5b6000611ceb87828801611b80565b9450506020611cfc87828801611b80565b9350506040611d0d87828801611bfe565b925050606085013567ffffffffffffffff811115611d2a57600080fd5b611d3687828801611bd4565b91505092959194509250565b60008060408385031215611d5557600080fd5b6000611d6385828601611b80565b9250506020611d7485828601611b95565b9150509250929050565b60008060408385031215611d9157600080fd5b6000611d9f85828601611b80565b9250506020611db085828601611bfe565b9150509250929050565b600060208284031215611dcc57600080fd5b6000611dda84828501611baa565b91505092915050565b600060208284031215611df557600080fd5b6000611e0384828501611bbf565b91505092915050565b600060208284031215611e1e57600080fd5b6000611e2c84828501611bfe565b91505092915050565b611e3e816125aa565b82525050565b611e4d816125bc565b82525050565b6000611e5e826124ac565b611e6881856124c2565b9350611e7881856020860161262d565b611e81816127f9565b840191505092915050565b6000611e97826124b7565b611ea181856124d3565b9350611eb181856020860161262d565b611eba816127f9565b840191505092915050565b6000611ed0826124b7565b611eda81856124e4565b9350611eea81856020860161262d565b80840191505092915050565b6000611f036032836124d3565b9150611f0e8261280a565b604082019050919050565b6000611f26601c836124d3565b9150611f3182612859565b602082019050919050565b6000611f496024836124d3565b9150611f5482612882565b604082019050919050565b6000611f6c6019836124d3565b9150611f77826128d1565b602082019050919050565b6000611f8f602c836124d3565b9150611f9a826128fa565b604082019050919050565b6000611fb26038836124d3565b9150611fbd82612949565b604082019050919050565b6000611fd5602a836124d3565b9150611fe082612998565b604082019050919050565b6000611ff86029836124d3565b9150612003826129e7565b604082019050919050565b600061201b602e836124d3565b915061202682612a36565b604082019050919050565b600061203e6020836124d3565b915061204982612a85565b602082019050919050565b60006120616031836124d3565b915061206c82612aae565b604082019050919050565b6000612084602c836124d3565b915061208f82612afd565b604082019050919050565b60006120a76029836124d3565b91506120b282612b4c565b604082019050919050565b60006120ca602f836124d3565b91506120d582612b9b565b604082019050919050565b60006120ed6021836124d3565b91506120f882612bea565b604082019050919050565b60006121106031836124d3565b915061211b82612c39565b604082019050919050565b61212f81612614565b82525050565b60006121418285611ec5565b915061214d8284611ec5565b91508190509392505050565b600060208201905061216e6000830184611e35565b92915050565b60006080820190506121896000830187611e35565b6121966020830186611e35565b6121a36040830185612126565b81810360608301526121b58184611e53565b905095945050505050565b60006020820190506121d56000830184611e44565b92915050565b600060208201905081810360008301526121f58184611e8c565b905092915050565b600060608201905081810360008301526122178186611e8c565b90506122266020830185612126565b6122336040830184611e35565b949350505050565b6000602082019050818103600083015261225481611ef6565b9050919050565b6000602082019050818103600083015261227481611f19565b9050919050565b6000602082019050818103600083015261229481611f3c565b9050919050565b600060208201905081810360008301526122b481611f5f565b9050919050565b600060208201905081810360008301526122d481611f82565b9050919050565b600060208201905081810360008301526122f481611fa5565b9050919050565b6000602082019050818103600083015261231481611fc8565b9050919050565b6000602082019050818103600083015261233481611feb565b9050919050565b600060208201905081810360008301526123548161200e565b9050919050565b6000602082019050818103600083015261237481612031565b9050919050565b6000602082019050818103600083015261239481612054565b9050919050565b600060208201905081810360008301526123b481612077565b9050919050565b600060208201905081810360008301526123d48161209a565b9050919050565b600060208201905081810360008301526123f4816120bd565b9050919050565b60006020820190508181036000830152612414816120e0565b9050919050565b6000602082019050818103600083015261243481612103565b9050919050565b60006020820190506124506000830184612126565b92915050565b6000612460612471565b905061246c8282612692565b919050565b6000604051905090565b600067ffffffffffffffff821115612496576124956127ca565b5b61249f826127f9565b9050602081019050919050565b600081519050919050565b600081519050919050565b600082825260208201905092915050565b600082825260208201905092915050565b600081905092915050565b60006124fa82612614565b915061250583612614565b9250827fffffffffffffffffffffffffffffffffffffffffffffffffffffffffffffffff0382111561253a5761253961273d565b5b828201905092915050565b600061255082612614565b915061255b83612614565b92508261256b5761256a61276c565b5b828204905092915050565b600061258182612614565b915061258c83612614565b92508282101561259f5761259e61273d565b5b828203905092915050565b60006125b5826125f4565b9050919050565b60008115159050919050565b60007fffffffff0000000000000000000000000000000000000000000000000000000082169050919050565b600073ffffffffffffffffffffffffffffffffffffffff82169050919050565b6000819050919050565b82818337600083830152505050565b60005b8381101561264b578082015181840152602081019050612630565b8381111561265a576000848401525b50505050565b6000600282049050600182168061267857607f821691505b6020821081141561268c5761268b61279b565b5b50919050565b61269b826127f9565b810181811067ffffffffffffffff821117156126ba576126b96127ca565b5b80604052505050565b60006126ce82612614565b91507fffffffffffffffffffffffffffffffffffffffffffffffffffffffffffffffff8214156127015761270061273d565b5b600182019050919050565b600061271782612614565b915061272283612614565b9250826127325761273161276c565b5b828206905092915050565b7f4e487b7100000000000000000000000000000000000000000000000000000000600052601160045260246000fd5b7f4e487b7100000000000000000000000000000000000000000000000000000000600052601260045260246000fd5b7f4e487b7100000000000000000000000000000000000000000000000000000000600052602260045260246000fd5b7f4e487b7100000000000000000000000000000000000000000000000000000000600052604160045260246000fd5b6000601f19601f8301169050919050565b7f4552433732313a207472616e7366657220746f206e6f6e20455243373231526560008201527f63656976657220696d706c656d656e7465720000000000000000000000000000602082015250565b7f4552433732313a20746f6b656e20616c7265616479206d696e74656400000000600082015250565b7f4552433732313a207472616e7366657220746f20746865207a65726f2061646460008201527f7265737300000000000000000000000000000000000000000000000000000000602082015250565b7f4552433732313a20617070726f766520746f2063616c6c657200000000000000600082015250565b7f4552433732313a206f70657261746f7220717565727920666f72206e6f6e657860008201527f697374656e7420746f6b656e0000000000000000000000000000000000000000602082015250565b7f4552433732313a20617070726f76652063616c6c6572206973206e6f74206f7760008201527f6e6572206e6f7220617070726f76656420666f7220616c6c0000000000000000602082015250565b7f4552433732313a2062616c616e636520717565727920666f7220746865207a6560008201527f726f206164647265737300000000000000000000000000000000000000000000602082015250565b7f4552433732313a206f776e657220717565727920666f72206e6f6e657869737460008201527f656e7420746f6b656e0000000000000000000000000000000000000000000000602082015250565b7f45524337323155524953746f726167653a2055524920736574206f66206e6f6e60008201527f6578697374656e7420746f6b656e000000000000000000000000000000000000602082015250565b7f4552433732313a206d696e7420746f20746865207a65726f2061646472657373600082015250565b7f45524337323155524953746f726167653a2055524920717565727920666f722060008201527f6e6f6e6578697374656e7420746f6b656e000000000000000000000000000000602082015250565b7f4552433732313a20617070726f76656420717565727920666f72206e6f6e657860008201527f697374656e7420746f6b656e0000000000000000000000000000000000000000602082015250565b7f4552433732313a207472616e73666572206f6620746f6b656e2074686174206960008201527f73206e6f74206f776e0000000000000000000000000000000000000000000000602082015250565b7f4552433732314d657461646174613a2055524920717565727920666f72206e6f60008201527f6e6578697374656e7420746f6b656e0000000000000000000000000000000000602082015250565b7f4552433732313a20617070726f76616c20746f2063757272656e74206f776e6560008201527f7200000000000000000000000000000000000000000000000000000000000000602082015250565b7f4552433732313a207472616e736665722063616c6c6572206973206e6f74206f60008201527f776e6572206e6f7220617070726f766564000000000000000000000000000000602082015250565b612c91816125aa565b8114612c9c57600080fd5b50565b612ca8816125bc565b8114612cb357600080fd5b50565b612cbf816125c8565b8114612cca57600080fd5b50565b612cd681612614565b8114612ce157600080fd5b5056fe416e204e465420772f20494420257320686173206265656e206d696e74656420746f202573a26469706673582212204cd0160e865343405338797773574d332fbbff6cf9f304bc4f114e75ae12953164736f6c63430008040033",
    "linkReferences": {},
    "deployedLinkReferences": {}
}