{
    "_format": "hh-sol-artifact-1",
    "contractName": "NftSwapContract",
    "sourceName": "contracts/NftSwapContract.sol",
    "abi": [
        {
            "inputs": [],
            "stateMutability": "nonpayable",
            "type": "constructor"
        },
        {
            "inputs": [
                {
                    "internalType": "bool",
                    "name": "_state",
                    "type": "bool"
                }
            ],
            "name": "approve",
            "outputs": [],
            "stateMutability": "nonpayable",
            "type": "function"
        },
        {
            "inputs": [],
            "name": "buyerAddress",
            "outputs": [
                {
                    "internalType": "address payable",
                    "name": "",
                    "type": "address"
                }
            ],
            "stateMutability": "view",
            "type": "function"
        },
        {
            "inputs": [],
            "name": "buyerCancelNFT",
            "outputs": [],
            "stateMutability": "nonpayable",
            "type": "function"
        },
        {
            "inputs": [
                {
                    "internalType": "address",
                    "name": "_NFTAddress",
                    "type": "address"
                },
                {
                    "internalType": "uint256",
                    "name": "_TokenID",
                    "type": "uint256"
                }
            ],
            "name": "buyerDepositNFT",
            "outputs": [],
            "stateMutability": "nonpayable",
            "type": "function"
        },
        {
            "inputs": [],
            "name": "buyerNftAddress",
            "outputs": [
                {
                    "internalType": "address",
                    "name": "",
                    "type": "address"
                }
            ],
            "stateMutability": "view",
            "type": "function"
        },
        {
            "inputs": [],
            "name": "getBalance",
            "outputs": [
                {
                    "internalType": "uint256",
                    "name": "balance",
                    "type": "uint256"
                }
            ],
            "stateMutability": "view",
            "type": "function"
        },
        {
            "inputs": [],
            "name": "getState",
            "outputs": [
                {
                    "internalType": "enum NftSwapContract.State",
                    "name": "",
                    "type": "uint8"
                }
            ],
            "stateMutability": "view",
            "type": "function"
        },
        {
            "inputs": [
                {
                    "internalType": "address",
                    "name": "operator",
                    "type": "address"
                },
                {
                    "internalType": "address",
                    "name": "from",
                    "type": "address"
                },
                {
                    "internalType": "uint256",
                    "name": "tokenId",
                    "type": "uint256"
                },
                {
                    "internalType": "bytes",
                    "name": "data",
                    "type": "bytes"
                }
            ],
            "name": "onERC721Received",
            "outputs": [
                {
                    "internalType": "bytes4",
                    "name": "",
                    "type": "bytes4"
                }
            ],
            "stateMutability": "nonpayable",
            "type": "function"
        },
        {
            "inputs": [],
            "name": "sellerAddress",
            "outputs": [
                {
                    "internalType": "address payable",
                    "name": "",
                    "type": "address"
                }
            ],
            "stateMutability": "view",
            "type": "function"
        },
        {
            "inputs": [],
            "name": "sellerCancelNFT",
            "outputs": [],
            "stateMutability": "nonpayable",
            "type": "function"
        },
        {
            "inputs": [
                {
                    "internalType": "address",
                    "name": "_NFTAddress",
                    "type": "address"
                },
                {
                    "internalType": "uint256",
                    "name": "_TokenID",
                    "type": "uint256"
                }
            ],
            "name": "sellerDepositNFT",
            "outputs": [],
            "stateMutability": "nonpayable",
            "type": "function"
        },
        {
            "inputs": [],
            "name": "sellerNftAddress",
            "outputs": [
                {
                    "internalType": "address",
                    "name": "",
                    "type": "address"
                }
            ],
            "stateMutability": "view",
            "type": "function"
        },
        {
            "inputs": [],
            "name": "state",
            "outputs": [
                {
                    "internalType": "enum NftSwapContract.State",
                    "name": "",
                    "type": "uint8"
                }
            ],
            "stateMutability": "view",
            "type": "function"
        }
    ],
    "bytecode": "0x60806040526000600660006101000a81548160ff0219169083151502179055506000600660016101000a81548160ff02191690831515021790555034801561004657600080fd5b506000600660026101000a81548160ff02191690836005811115610093577f4e487b7100000000000000000000000000000000000000000000000000000000600052602160045260246000fd5b0217905550611778806100a76000396000f3fe608060405234801561001057600080fd5b50600436106100cf5760003560e01c806344834aca1161008c578063c9a437bf11610066578063c9a437bf146101dc578063cb4eea0f146101e6578063d83eea0814610202578063e76b71b414610220576100cf565b806344834aca146101845780637e2624f5146101a2578063c19d93fb146101be576100cf565b806309b67f8e146100d457806310fbe25f146100f057806312065fe0146100fa578063150b7a02146101185780631865c57d146101485780633d9b2ae614610166575b600080fd5b6100ee60048036038101906100e991906112df565b61023e565b005b6100f86106dc565b005b6101026108a8565b60405161010f9190611522565b60405180910390f35b610132600480360381019061012d9190611223565b6108b0565b60405161013f919061144e565b60405180910390f35b6101506108c5565b60405161015d9190611469565b60405180910390f35b61016e6108dc565b60405161017b91906113c5565b60405180910390f35b61018c610900565b60405161019991906113c5565b60405180910390f35b6101bc60048036038101906101b791906112a3565b610926565b005b6101c6610b48565b6040516101d39190611469565b60405180910390f35b6101e4610b5b565b005b61020060048036038101906101fb91906112a3565b610d29565b005b61020a610f4e565b60405161021791906113aa565b60405180910390f35b610228610f74565b60405161023591906113aa565b60405180910390f35b6003806005811115610279577f4e487b7100000000000000000000000000000000000000000000000000000000600052602160045260246000fd5b600660029054906101000a900460ff1660058111156102c1577f4e487b7100000000000000000000000000000000000000000000000000000000600052602160045260246000fd5b146102cb57600080fd5b600160009054906101000a900473ffffffffffffffffffffffffffffffffffffffff1673ffffffffffffffffffffffffffffffffffffffff163373ffffffffffffffffffffffffffffffffffffffff161480610372575060008054906101000a900473ffffffffffffffffffffffffffffffffffffffff1673ffffffffffffffffffffffffffffffffffffffff163373ffffffffffffffffffffffffffffffffffffffff16145b61037b57600080fd5b60008054906101000a900473ffffffffffffffffffffffffffffffffffffffff1673ffffffffffffffffffffffffffffffffffffffff163373ffffffffffffffffffffffffffffffffffffffff16141561043c5781600660016101000a81548160ff0219169083151502179055506104376040518060400160405280601281526020017f73656c6c657220617070726f76653a2025730000000000000000000000000000815250600660019054906101000a900460ff16610f9a565b6104a5565b81600660006101000a81548160ff0219169083151502179055506104a46040518060400160405280601181526020017f627579657220617070726f76653a202573000000000000000000000000000000815250600660009054906101000a900460ff16610f9a565b5b60011515600660019054906101000a900460ff1615151480156104db575060011515600660009054906101000a900460ff161515145b156106d85761051e6040518060400160405280601b81526020017f626f7468207369676e65642c2065786368616e67696e67204e46540000000000815250611036565b600260009054906101000a900473ffffffffffffffffffffffffffffffffffffffff1673ffffffffffffffffffffffffffffffffffffffff166342842e0e30600160009054906101000a900473ffffffffffffffffffffffffffffffffffffffff166003546040518463ffffffff1660e01b81526004016105a1939291906113e0565b600060405180830381600087803b1580156105bb57600080fd5b505af11580156105cf573d6000803e3d6000fd5b50505050600460009054906101000a900473ffffffffffffffffffffffffffffffffffffffff1673ffffffffffffffffffffffffffffffffffffffff166342842e0e3060008054906101000a900473ffffffffffffffffffffffffffffffffffffffff166005546040518463ffffffff1660e01b8152600401610654939291906113e0565b600060405180830381600087803b15801561066e57600080fd5b505af1158015610682573d6000803e3d6000fd5b505050506005600660026101000a81548160ff021916908360058111156106d2577f4e487b7100000000000000000000000000000000000000000000000000000000600052602160045260246000fd5b02179055505b5050565b6001806005811115610717577f4e487b7100000000000000000000000000000000000000000000000000000000600052602160045260246000fd5b600660029054906101000a900460ff16600581111561075f577f4e487b7100000000000000000000000000000000000000000000000000000000600052602160045260246000fd5b1461076957600080fd5b60008054906101000a900473ffffffffffffffffffffffffffffffffffffffff1673ffffffffffffffffffffffffffffffffffffffff163373ffffffffffffffffffffffffffffffffffffffff16146107c157600080fd5b600260009054906101000a900473ffffffffffffffffffffffffffffffffffffffff1673ffffffffffffffffffffffffffffffffffffffff166342842e0e30336003546040518463ffffffff1660e01b815260040161082293929190611417565b600060405180830381600087803b15801561083c57600080fd5b505af1158015610850573d6000803e3d6000fd5b505050506002600660026101000a81548160ff021916908360058111156108a0577f4e487b7100000000000000000000000000000000000000000000000000000000600052602160045260246000fd5b021790555050565b600047905090565b600063150b7a0260e01b905095945050505050565b6000600660029054906101000a900460ff16905090565b60008054906101000a900473ffffffffffffffffffffffffffffffffffffffff1681565b600160009054906101000a900473ffffffffffffffffffffffffffffffffffffffff1681565b6000806005811115610961577f4e487b7100000000000000000000000000000000000000000000000000000000600052602160045260246000fd5b600660029054906101000a900460ff1660058111156109a9577f4e487b7100000000000000000000000000000000000000000000000000000000600052602160045260246000fd5b146109b357600080fd5b336000806101000a81548173ffffffffffffffffffffffffffffffffffffffff021916908373ffffffffffffffffffffffffffffffffffffffff16021790555082600260006101000a81548173ffffffffffffffffffffffffffffffffffffffff021916908373ffffffffffffffffffffffffffffffffffffffff16021790555081600381905550600260009054906101000a900473ffffffffffffffffffffffffffffffffffffffff1673ffffffffffffffffffffffffffffffffffffffff166342842e0e33306003546040518463ffffffff1660e01b8152600401610a9c93929190611417565b600060405180830381600087803b158015610ab657600080fd5b505af1158015610aca573d6000803e3d6000fd5b50505050610af26040518060600160405280603c8152602001611707603c91398484336110cf565b6001600660026101000a81548160ff02191690836005811115610b3e577f4e487b7100000000000000000000000000000000000000000000000000000000600052602160045260246000fd5b0217905550505050565b600660029054906101000a900460ff1681565b6003806005811115610b96577f4e487b7100000000000000000000000000000000000000000000000000000000600052602160045260246000fd5b600660029054906101000a900460ff166005811115610bde577f4e487b7100000000000000000000000000000000000000000000000000000000600052602160045260246000fd5b14610be857600080fd5b600160009054906101000a900473ffffffffffffffffffffffffffffffffffffffff1673ffffffffffffffffffffffffffffffffffffffff163373ffffffffffffffffffffffffffffffffffffffff1614610c4257600080fd5b600460009054906101000a900473ffffffffffffffffffffffffffffffffffffffff1673ffffffffffffffffffffffffffffffffffffffff166342842e0e30336005546040518463ffffffff1660e01b8152600401610ca393929190611417565b600060405180830381600087803b158015610cbd57600080fd5b505af1158015610cd1573d6000803e3d6000fd5b505050506004600660026101000a81548160ff02191690836005811115610d21577f4e487b7100000000000000000000000000000000000000000000000000000000600052602160045260246000fd5b021790555050565b6001806005811115610d64577f4e487b7100000000000000000000000000000000000000000000000000000000600052602160045260246000fd5b600660029054906101000a900460ff166005811115610dac577f4e487b7100000000000000000000000000000000000000000000000000000000600052602160045260246000fd5b14610db657600080fd5b33600160006101000a81548173ffffffffffffffffffffffffffffffffffffffff021916908373ffffffffffffffffffffffffffffffffffffffff16021790555082600460006101000a81548173ffffffffffffffffffffffffffffffffffffffff021916908373ffffffffffffffffffffffffffffffffffffffff16021790555081600581905550600460009054906101000a900473ffffffffffffffffffffffffffffffffffffffff1673ffffffffffffffffffffffffffffffffffffffff166342842e0e33306005546040518463ffffffff1660e01b8152600401610ea093929190611417565b600060405180830381600087803b158015610eba57600080fd5b505af1158015610ece573d6000803e3d6000fd5b50505050610ef86040518060600160405280603c8152602001611707603c913984600554336110cf565b6003600660026101000a81548160ff02191690836005811115610f44577f4e487b7100000000000000000000000000000000000000000000000000000000600052602160045260246000fd5b0217905550505050565b600460009054906101000a900473ffffffffffffffffffffffffffffffffffffffff1681565b600260009054906101000a900473ffffffffffffffffffffffffffffffffffffffff1681565b6110328282604051602401610fb09291906114f2565b6040516020818303038152906040527fc3b55635000000000000000000000000000000000000000000000000000000007bffffffffffffffffffffffffffffffffffffffffffffffffffffffff19166020820180517bffffffffffffffffffffffffffffffffffffffffffffffffffffffff8381831617835250505050611171565b5050565b6110cc8160405160240161104a9190611484565b6040516020818303038152906040527f41304fac000000000000000000000000000000000000000000000000000000007bffffffffffffffffffffffffffffffffffffffffffffffffffffffff19166020820180517bffffffffffffffffffffffffffffffffffffffffffffffffffffffff8381831617835250505050611171565b50565b61116b848484846040516024016110e994939291906114a6565b6040516020818303038152906040527fa366ec80000000000000000000000000000000000000000000000000000000007bffffffffffffffffffffffffffffffffffffffffffffffffffffffff19166020820180517bffffffffffffffffffffffffffffffffffffffffffffffffffffffff8381831617835250505050611171565b50505050565b60008151905060006a636f6e736f6c652e6c6f679050602083016000808483855afa5050505050565b6000813590506111a9816116c1565b92915050565b6000813590506111be816116d8565b92915050565b60008083601f8401126111d657600080fd5b8235905067ffffffffffffffff8111156111ef57600080fd5b60208301915083600182028301111561120757600080fd5b9250929050565b60008135905061121d816116ef565b92915050565b60008060008060006080868803121561123b57600080fd5b60006112498882890161119a565b955050602061125a8882890161119a565b945050604061126b8882890161120e565b935050606086013567ffffffffffffffff81111561128857600080fd5b611294888289016111c4565b92509250509295509295909350565b600080604083850312156112b657600080fd5b60006112c48582860161119a565b92505060206112d58582860161120e565b9150509250929050565b6000602082840312156112f157600080fd5b60006112ff848285016111af565b91505092915050565b611311816115f2565b82525050565b6113208161156b565b82525050565b61132f81611559565b82525050565b61133e8161157d565b82525050565b61134d81611589565b82525050565b61135c81611604565b82525050565b600061136d8261153d565b6113778185611548565b935061138781856020860161163a565b6113908161169c565b840191505092915050565b6113a4816115e8565b82525050565b60006020820190506113bf6000830184611326565b92915050565b60006020820190506113da6000830184611317565b92915050565b60006060820190506113f56000830186611326565b6114026020830185611308565b61140f604083018461139b565b949350505050565b600060608201905061142c6000830186611326565b6114396020830185611326565b611446604083018461139b565b949350505050565b60006020820190506114636000830184611344565b92915050565b600060208201905061147e6000830184611353565b92915050565b6000602082019050818103600083015261149e8184611362565b905092915050565b600060808201905081810360008301526114c08187611362565b90506114cf6020830186611326565b6114dc604083018561139b565b6114e96060830184611326565b95945050505050565b6000604082019050818103600083015261150c8185611362565b905061151b6020830184611335565b9392505050565b6000602082019050611537600083018461139b565b92915050565b600081519050919050565b600082825260208201905092915050565b6000611564826115c8565b9050919050565b6000611576826115c8565b9050919050565b60008115159050919050565b60007fffffffff0000000000000000000000000000000000000000000000000000000082169050919050565b60008190506115c3826116ad565b919050565b600073ffffffffffffffffffffffffffffffffffffffff82169050919050565b6000819050919050565b60006115fd82611616565b9050919050565b600061160f826115b5565b9050919050565b600061162182611628565b9050919050565b6000611633826115c8565b9050919050565b60005b8381101561165857808201518184015260208101905061163d565b83811115611667576000848401525b50505050565b7f4e487b7100000000000000000000000000000000000000000000000000000000600052602160045260246000fd5b6000601f19601f8301169050919050565b600681106116be576116bd61166d565b5b50565b6116ca81611559565b81146116d557600080fd5b50565b6116e18161157d565b81146116ec57600080fd5b50565b6116f8816115e8565b811461170357600080fd5b5056fe4e465420617420257320772f20494420257320686173206265656e206465706f736974656420746f207468697320636f6e7472616374206279202573a2646970667358221220bf237d7eecb0545b565f4437e2f6b5488b3e0cd7b1c55b4085ceb439b6552a2f64736f6c63430008040033",
    "linkReferences": {},
    "deployedLinkReferences": {}
}