{
    "_format": "hh-sol-artifact-1",
    "contractName": "NftSwapContract",
    "sourceName": "contracts/NftSwapContract.sol",
    "abi": [
        {
            "inputs": [],
            "stateMutability": "nonpayable",
            "type": "constructor"
        },
        {
            "inputs": [],
            "name": "approve",
            "outputs": [],
            "stateMutability": "nonpayable",
            "type": "function"
        },
        {
            "inputs": [],
            "name": "buyerAddress",
            "outputs": [
                {
                    "internalType": "address payable",
                    "name": "",
                    "type": "address"
                }
            ],
            "stateMutability": "view",
            "type": "function"
        },
        {
            "inputs": [],
            "name": "buyerCancel",
            "outputs": [],
            "stateMutability": "nonpayable",
            "type": "function"
        },
        {
            "inputs": [
                {
                    "internalType": "address",
                    "name": "_NFTAddress",
                    "type": "address"
                },
                {
                    "internalType": "uint256",
                    "name": "_TokenID",
                    "type": "uint256"
                }
            ],
            "name": "buyerDepositNFT",
            "outputs": [],
            "stateMutability": "nonpayable",
            "type": "function"
        },
        {
            "inputs": [],
            "name": "buyerNftAddress",
            "outputs": [
                {
                    "internalType": "address",
                    "name": "",
                    "type": "address"
                }
            ],
            "stateMutability": "view",
            "type": "function"
        },
        {
            "inputs": [],
            "name": "getBalance",
            "outputs": [
                {
                    "internalType": "uint256",
                    "name": "balance",
                    "type": "uint256"
                }
            ],
            "stateMutability": "view",
            "type": "function"
        },
        {
            "inputs": [],
            "name": "getSellerNftAddress",
            "outputs": [
                {
                    "internalType": "address",
                    "name": "",
                    "type": "address"
                }
            ],
            "stateMutability": "view",
            "type": "function"
        },
        {
            "inputs": [],
            "name": "getSellerTokenID",
            "outputs": [
                {
                    "internalType": "uint256",
                    "name": "",
                    "type": "uint256"
                }
            ],
            "stateMutability": "view",
            "type": "function"
        },
        {
            "inputs": [],
            "name": "getState",
            "outputs": [
                {
                    "internalType": "enum NftSwapContract.State",
                    "name": "",
                    "type": "uint8"
                }
            ],
            "stateMutability": "view",
            "type": "function"
        },
        {
            "inputs": [
                {
                    "internalType": "address",
                    "name": "operator",
                    "type": "address"
                },
                {
                    "internalType": "address",
                    "name": "from",
                    "type": "address"
                },
                {
                    "internalType": "uint256",
                    "name": "tokenId",
                    "type": "uint256"
                },
                {
                    "internalType": "bytes",
                    "name": "data",
                    "type": "bytes"
                }
            ],
            "name": "onERC721Received",
            "outputs": [
                {
                    "internalType": "bytes4",
                    "name": "",
                    "type": "bytes4"
                }
            ],
            "stateMutability": "nonpayable",
            "type": "function"
        },
        {
            "inputs": [],
            "name": "sellerAddress",
            "outputs": [
                {
                    "internalType": "address payable",
                    "name": "",
                    "type": "address"
                }
            ],
            "stateMutability": "view",
            "type": "function"
        },
        {
            "inputs": [],
            "name": "sellerCancel",
            "outputs": [],
            "stateMutability": "nonpayable",
            "type": "function"
        },
        {
            "inputs": [],
            "name": "sellerDecline",
            "outputs": [],
            "stateMutability": "nonpayable",
            "type": "function"
        },
        {
            "inputs": [
                {
                    "internalType": "address",
                    "name": "_NFTAddress",
                    "type": "address"
                },
                {
                    "internalType": "uint256",
                    "name": "_TokenID",
                    "type": "uint256"
                }
            ],
            "name": "sellerDepositNFT",
            "outputs": [],
            "stateMutability": "nonpayable",
            "type": "function"
        },
        {
            "inputs": [],
            "name": "sellerNftAddress",
            "outputs": [
                {
                    "internalType": "address",
                    "name": "",
                    "type": "address"
                }
            ],
            "stateMutability": "view",
            "type": "function"
        },
        {
            "inputs": [],
            "name": "state",
            "outputs": [
                {
                    "internalType": "enum NftSwapContract.State",
                    "name": "",
                    "type": "uint8"
                }
            ],
            "stateMutability": "view",
            "type": "function"
        }
    ],
    "bytecode": "0x60806040526000600660006101000a81548160ff0219169083151502179055506000600660016101000a81548160ff02191690831515021790555034801561004657600080fd5b50336000806101000a81548173ffffffffffffffffffffffffffffffffffffffff021916908373ffffffffffffffffffffffffffffffffffffffff1602179055506000600660026101000a81548160ff021916908360048111156100d3577f4e487b7100000000000000000000000000000000000000000000000000000000600052602160045260246000fd5b0217905550611a53806100e76000396000f3fe608060405234801561001057600080fd5b50600436106101005760003560e01c80637e2624f511610097578063d55a17c011610066578063d55a17c014610253578063d83eea081461025d578063e76b71b41461027b578063e9d13b571461029957610100565b80637e2624f5146101df578063916d8a12146101fb578063c19d93fb14610219578063cb4eea0f1461023757610100565b8063150b7a02116100d3578063150b7a02146101555780631865c57d146101855780633d9b2ae6146101a357806344834aca146101c157610100565b806301d79d3a146101055780630c5bf2791461010f57806312065fe01461012d57806312424e3f1461014b575b600080fd5b61010d6102a3565b005b610117610505565b6040516101249190611814565b60405180910390f35b61013561050f565b6040516101429190611814565b60405180910390f35b610153610517565b005b61016f600480360381019061016a919061153e565b6109b6565b60405161017c9190611740565b60405180910390f35b61018d6109cb565b60405161019a919061175b565b60405180910390f35b6101ab6109e2565b6040516101b891906116b7565b60405180910390f35b6101c9610a06565b6040516101d691906116b7565b60405180910390f35b6101f960048036038101906101f491906115be565b610a2c565b005b610203610c0e565b604051610210919061169c565b60405180910390f35b610221610c38565b60405161022e919061175b565b60405180910390f35b610251600480360381019061024c91906115be565b610c4b565b005b61025b610e70565b005b61026561103c565b604051610272919061169c565b60405180910390f35b610283611062565b604051610290919061169c565b60405180910390f35b6102a1611088565b005b60038060048111156102de577f4e487b7100000000000000000000000000000000000000000000000000000000600052602160045260246000fd5b600660029054906101000a900460ff166004811115610326577f4e487b7100000000000000000000000000000000000000000000000000000000600052602160045260246000fd5b1461033057600080fd5b60008054906101000a900473ffffffffffffffffffffffffffffffffffffffff1673ffffffffffffffffffffffffffffffffffffffff163373ffffffffffffffffffffffffffffffffffffffff161461038857600080fd5b600460009054906101000a900473ffffffffffffffffffffffffffffffffffffffff1673ffffffffffffffffffffffffffffffffffffffff166342842e0e30600160009054906101000a900473ffffffffffffffffffffffffffffffffffffffff166005546040518463ffffffff1660e01b815260040161040b939291906116d2565b600060405180830381600087803b15801561042557600080fd5b505af1158015610439573d6000803e3d6000fd5b50505050600160006101000a81549073ffffffffffffffffffffffffffffffffffffffff0219169055600460006101000a81549073ffffffffffffffffffffffffffffffffffffffff0219169055600560009055600660016101000a81549060ff0219169055600660006101000a81549060ff02191690556001600660026101000a81548160ff021916908360048111156104fd577f4e487b7100000000000000000000000000000000000000000000000000000000600052602160045260246000fd5b021790555050565b6000600354905090565b600047905090565b6003806004811115610552577f4e487b7100000000000000000000000000000000000000000000000000000000600052602160045260246000fd5b600660029054906101000a900460ff16600481111561059a577f4e487b7100000000000000000000000000000000000000000000000000000000600052602160045260246000fd5b146105a457600080fd5b600160009054906101000a900473ffffffffffffffffffffffffffffffffffffffff1673ffffffffffffffffffffffffffffffffffffffff163373ffffffffffffffffffffffffffffffffffffffff16148061064b575060008054906101000a900473ffffffffffffffffffffffffffffffffffffffff1673ffffffffffffffffffffffffffffffffffffffff163373ffffffffffffffffffffffffffffffffffffffff16145b61065457600080fd5b60008054906101000a900473ffffffffffffffffffffffffffffffffffffffff1673ffffffffffffffffffffffffffffffffffffffff163373ffffffffffffffffffffffffffffffffffffffff161415610716576001600660016101000a81548160ff0219169083151502179055506107116040518060400160405280601281526020017f73656c6c657220617070726f76653a2025730000000000000000000000000000815250600660019054906101000a900460ff166112ca565b610780565b6001600660006101000a81548160ff02191690831515021790555061077f6040518060400160405280601181526020017f627579657220617070726f76653a202573000000000000000000000000000000815250600660009054906101000a900460ff166112ca565b5b60011515600660019054906101000a900460ff1615151480156107b6575060011515600660009054906101000a900460ff161515145b156109b3576107f96040518060400160405280601b81526020017f626f7468207369676e65642c2065786368616e67696e67204e46540000000000815250611366565b600260009054906101000a900473ffffffffffffffffffffffffffffffffffffffff1673ffffffffffffffffffffffffffffffffffffffff166342842e0e30600160009054906101000a900473ffffffffffffffffffffffffffffffffffffffff166003546040518463ffffffff1660e01b815260040161087c939291906116d2565b600060405180830381600087803b15801561089657600080fd5b505af11580156108aa573d6000803e3d6000fd5b50505050600460009054906101000a900473ffffffffffffffffffffffffffffffffffffffff1673ffffffffffffffffffffffffffffffffffffffff166342842e0e3060008054906101000a900473ffffffffffffffffffffffffffffffffffffffff166005546040518463ffffffff1660e01b815260040161092f939291906116d2565b600060405180830381600087803b15801561094957600080fd5b505af115801561095d573d6000803e3d6000fd5b505050506004600660026101000a81548160ff021916908360048111156109ad577f4e487b7100000000000000000000000000000000000000000000000000000000600052602160045260246000fd5b02179055505b50565b600063150b7a0260e01b905095945050505050565b6000600660029054906101000a900460ff16905090565b60008054906101000a900473ffffffffffffffffffffffffffffffffffffffff1681565b600160009054906101000a900473ffffffffffffffffffffffffffffffffffffffff1681565b6000806004811115610a67577f4e487b7100000000000000000000000000000000000000000000000000000000600052602160045260246000fd5b600660029054906101000a900460ff166004811115610aaf577f4e487b7100000000000000000000000000000000000000000000000000000000600052602160045260246000fd5b14610ab957600080fd5b82600260006101000a81548173ffffffffffffffffffffffffffffffffffffffff021916908373ffffffffffffffffffffffffffffffffffffffff16021790555081600381905550600260009054906101000a900473ffffffffffffffffffffffffffffffffffffffff1673ffffffffffffffffffffffffffffffffffffffff166342842e0e33306003546040518463ffffffff1660e01b8152600401610b6293929190611709565b600060405180830381600087803b158015610b7c57600080fd5b505af1158015610b90573d6000803e3d6000fd5b50505050610bb86040518060600160405280603c81526020016119e2603c91398484336113ff565b6001600660026101000a81548160ff02191690836004811115610c04577f4e487b7100000000000000000000000000000000000000000000000000000000600052602160045260246000fd5b0217905550505050565b6000600260009054906101000a900473ffffffffffffffffffffffffffffffffffffffff16905090565b600660029054906101000a900460ff1681565b6001806004811115610c86577f4e487b7100000000000000000000000000000000000000000000000000000000600052602160045260246000fd5b600660029054906101000a900460ff166004811115610cce577f4e487b7100000000000000000000000000000000000000000000000000000000600052602160045260246000fd5b14610cd857600080fd5b33600160006101000a81548173ffffffffffffffffffffffffffffffffffffffff021916908373ffffffffffffffffffffffffffffffffffffffff16021790555082600460006101000a81548173ffffffffffffffffffffffffffffffffffffffff021916908373ffffffffffffffffffffffffffffffffffffffff16021790555081600581905550600460009054906101000a900473ffffffffffffffffffffffffffffffffffffffff1673ffffffffffffffffffffffffffffffffffffffff166342842e0e33306005546040518463ffffffff1660e01b8152600401610dc293929190611709565b600060405180830381600087803b158015610ddc57600080fd5b505af1158015610df0573d6000803e3d6000fd5b50505050610e1a6040518060600160405280603c81526020016119e2603c913984600554336113ff565b6003600660026101000a81548160ff02191690836004811115610e66577f4e487b7100000000000000000000000000000000000000000000000000000000600052602160045260246000fd5b0217905550505050565b6001806004811115610eab577f4e487b7100000000000000000000000000000000000000000000000000000000600052602160045260246000fd5b600660029054906101000a900460ff166004811115610ef3577f4e487b7100000000000000000000000000000000000000000000000000000000600052602160045260246000fd5b14610efd57600080fd5b60008054906101000a900473ffffffffffffffffffffffffffffffffffffffff1673ffffffffffffffffffffffffffffffffffffffff163373ffffffffffffffffffffffffffffffffffffffff1614610f5557600080fd5b600260009054906101000a900473ffffffffffffffffffffffffffffffffffffffff1673ffffffffffffffffffffffffffffffffffffffff166342842e0e30336003546040518463ffffffff1660e01b8152600401610fb693929190611709565b600060405180830381600087803b158015610fd057600080fd5b505af1158015610fe4573d6000803e3d6000fd5b505050506002600660026101000a81548160ff02191690836004811115611034577f4e487b7100000000000000000000000000000000000000000000000000000000600052602160045260246000fd5b021790555050565b600460009054906101000a900473ffffffffffffffffffffffffffffffffffffffff1681565b600260009054906101000a900473ffffffffffffffffffffffffffffffffffffffff1681565b60038060048111156110c3577f4e487b7100000000000000000000000000000000000000000000000000000000600052602160045260246000fd5b600660029054906101000a900460ff16600481111561110b577f4e487b7100000000000000000000000000000000000000000000000000000000600052602160045260246000fd5b1461111557600080fd5b600160009054906101000a900473ffffffffffffffffffffffffffffffffffffffff1673ffffffffffffffffffffffffffffffffffffffff163373ffffffffffffffffffffffffffffffffffffffff161461116f57600080fd5b600460009054906101000a900473ffffffffffffffffffffffffffffffffffffffff1673ffffffffffffffffffffffffffffffffffffffff166342842e0e30336005546040518463ffffffff1660e01b81526004016111d093929190611709565b600060405180830381600087803b1580156111ea57600080fd5b505af11580156111fe573d6000803e3d6000fd5b50505050600160006101000a81549073ffffffffffffffffffffffffffffffffffffffff0219169055600460006101000a81549073ffffffffffffffffffffffffffffffffffffffff0219169055600560009055600660016101000a81549060ff0219169055600660006101000a81549060ff02191690556001600660026101000a81548160ff021916908360048111156112c2577f4e487b7100000000000000000000000000000000000000000000000000000000600052602160045260246000fd5b021790555050565b61136282826040516024016112e09291906117e4565b6040516020818303038152906040527fc3b55635000000000000000000000000000000000000000000000000000000007bffffffffffffffffffffffffffffffffffffffffffffffffffffffff19166020820180517bffffffffffffffffffffffffffffffffffffffffffffffffffffffff83818316178352505050506114a1565b5050565b6113fc8160405160240161137a9190611776565b6040516020818303038152906040527f41304fac000000000000000000000000000000000000000000000000000000007bffffffffffffffffffffffffffffffffffffffffffffffffffffffff19166020820180517bffffffffffffffffffffffffffffffffffffffffffffffffffffffff83818316178352505050506114a1565b50565b61149b848484846040516024016114199493929190611798565b6040516020818303038152906040527fa366ec80000000000000000000000000000000000000000000000000000000007bffffffffffffffffffffffffffffffffffffffffffffffffffffffff19166020820180517bffffffffffffffffffffffffffffffffffffffffffffffffffffffff83818316178352505050506114a1565b50505050565b60008151905060006a636f6e736f6c652e6c6f679050602083016000808483855afa5050505050565b6000813590506114d9816119b3565b92915050565b60008083601f8401126114f157600080fd5b8235905067ffffffffffffffff81111561150a57600080fd5b60208301915083600182028301111561152257600080fd5b9250929050565b600081359050611538816119ca565b92915050565b60008060008060006080868803121561155657600080fd5b6000611564888289016114ca565b9550506020611575888289016114ca565b945050604061158688828901611529565b935050606086013567ffffffffffffffff8111156115a357600080fd5b6115af888289016114df565b92509250509295509295909350565b600080604083850312156115d157600080fd5b60006115df858286016114ca565b92505060206115f085828601611529565b9150509250929050565b611603816118e4565b82525050565b6116128161185d565b82525050565b6116218161184b565b82525050565b6116308161186f565b82525050565b61163f8161187b565b82525050565b61164e816118f6565b82525050565b600061165f8261182f565b611669818561183a565b935061167981856020860161192c565b6116828161198e565b840191505092915050565b611696816118da565b82525050565b60006020820190506116b16000830184611618565b92915050565b60006020820190506116cc6000830184611609565b92915050565b60006060820190506116e76000830186611618565b6116f460208301856115fa565b611701604083018461168d565b949350505050565b600060608201905061171e6000830186611618565b61172b6020830185611618565b611738604083018461168d565b949350505050565b60006020820190506117556000830184611636565b92915050565b60006020820190506117706000830184611645565b92915050565b600060208201905081810360008301526117908184611654565b905092915050565b600060808201905081810360008301526117b28187611654565b90506117c16020830186611618565b6117ce604083018561168d565b6117db6060830184611618565b95945050505050565b600060408201905081810360008301526117fe8185611654565b905061180d6020830184611627565b9392505050565b6000602082019050611829600083018461168d565b92915050565b600081519050919050565b600082825260208201905092915050565b6000611856826118ba565b9050919050565b6000611868826118ba565b9050919050565b60008115159050919050565b60007fffffffff0000000000000000000000000000000000000000000000000000000082169050919050565b60008190506118b58261199f565b919050565b600073ffffffffffffffffffffffffffffffffffffffff82169050919050565b6000819050919050565b60006118ef82611908565b9050919050565b6000611901826118a7565b9050919050565b60006119138261191a565b9050919050565b6000611925826118ba565b9050919050565b60005b8381101561194a57808201518184015260208101905061192f565b83811115611959576000848401525b50505050565b7f4e487b7100000000000000000000000000000000000000000000000000000000600052602160045260246000fd5b6000601f19601f8301169050919050565b600581106119b0576119af61195f565b5b50565b6119bc8161184b565b81146119c757600080fd5b50565b6119d3816118da565b81146119de57600080fd5b5056fe4e465420617420257320772f20494420257320686173206265656e206465706f736974656420746f207468697320636f6e7472616374206279202573a2646970667358221220d0b64c1ef76ac9371852473c9b744813984c55b157f15fd779d8282de101ba0164736f6c63430008040033",
    "linkReferences": {},
    "deployedLinkReferences": {}
}