{
    "_format": "hh-sol-artifact-1",
    "contractName": "NftSwapContract",
    "sourceName": "contracts/NftSwapContract.sol",
    "abi": [
        {
            "anonymous": false,
            "inputs": [
                {
                    "indexed": false,
                    "internalType": "address",
                    "name": "nftAddress",
                    "type": "address"
                },
                {
                    "indexed": false,
                    "internalType": "uint256",
                    "name": "tokenId",
                    "type": "uint256"
                }
            ],
            "name": "buyerCancelEvent",
            "type": "event"
        },
        {
            "anonymous": false,
            "inputs": [
                {
                    "indexed": false,
                    "internalType": "address",
                    "name": "nftAddress",
                    "type": "address"
                },
                {
                    "indexed": false,
                    "internalType": "uint256",
                    "name": "tokenId",
                    "type": "uint256"
                }
            ],
            "name": "buyerDepositEvent",
            "type": "event"
        },
        {
            "anonymous": false,
            "inputs": [
                {
                    "indexed": false,
                    "internalType": "address",
                    "name": "nftAddress",
                    "type": "address"
                },
                {
                    "indexed": false,
                    "internalType": "uint256",
                    "name": "tokenId",
                    "type": "uint256"
                }
            ],
            "name": "sellerApproveEvent",
            "type": "event"
        },
        {
            "anonymous": false,
            "inputs": [
                {
                    "indexed": false,
                    "internalType": "address",
                    "name": "nftAddress",
                    "type": "address"
                },
                {
                    "indexed": false,
                    "internalType": "uint256",
                    "name": "tokenId",
                    "type": "uint256"
                }
            ],
            "name": "sellerCancelEvent",
            "type": "event"
        },
        {
            "anonymous": false,
            "inputs": [
                {
                    "indexed": false,
                    "internalType": "address",
                    "name": "nftAddress",
                    "type": "address"
                },
                {
                    "indexed": false,
                    "internalType": "uint256",
                    "name": "tokenId",
                    "type": "uint256"
                }
            ],
            "name": "sellerDeclineEvent",
            "type": "event"
        },
        {
            "anonymous": false,
            "inputs": [
                {
                    "indexed": false,
                    "internalType": "address",
                    "name": "nftAddress",
                    "type": "address"
                },
                {
                    "indexed": false,
                    "internalType": "uint256",
                    "name": "tokenId",
                    "type": "uint256"
                }
            ],
            "name": "sellerDepositEvent",
            "type": "event"
        },
        {
            "inputs": [
                {
                    "internalType": "address",
                    "name": "_NFTAddress",
                    "type": "address"
                },
                {
                    "internalType": "uint256",
                    "name": "_TokenID",
                    "type": "uint256"
                }
            ],
            "name": "buyerCancel",
            "outputs": [],
            "stateMutability": "nonpayable",
            "type": "function"
        },
        {
            "inputs": [
                {
                    "internalType": "address",
                    "name": "sellerNftAddress",
                    "type": "address"
                },
                {
                    "internalType": "uint256",
                    "name": "sellerTokenID",
                    "type": "uint256"
                },
                {
                    "internalType": "address",
                    "name": "_NFTAddress",
                    "type": "address"
                },
                {
                    "internalType": "uint256",
                    "name": "_TokenID",
                    "type": "uint256"
                }
            ],
            "name": "buyerDepositNFT",
            "outputs": [],
            "stateMutability": "nonpayable",
            "type": "function"
        },
        {
            "inputs": [],
            "name": "getAllActiveSwaps",
            "outputs": [
                {
                    "components": [
                        {
                            "internalType": "address payable",
                            "name": "sellerAddress",
                            "type": "address"
                        },
                        {
                            "internalType": "address payable",
                            "name": "buyerAddress",
                            "type": "address"
                        },
                        {
                            "internalType": "address",
                            "name": "sellerNftAddress",
                            "type": "address"
                        },
                        {
                            "internalType": "uint256",
                            "name": "sellerTokenID",
                            "type": "uint256"
                        },
                        {
                            "internalType": "address",
                            "name": "buyerNftAddress",
                            "type": "address"
                        },
                        {
                            "internalType": "uint256",
                            "name": "buyerTokenID",
                            "type": "uint256"
                        }
                    ],
                    "internalType": "struct NftSwapContract.Swap[]",
                    "name": "",
                    "type": "tuple[]"
                }
            ],
            "stateMutability": "view",
            "type": "function"
        },
        {
            "inputs": [
                {
                    "internalType": "address",
                    "name": "operator",
                    "type": "address"
                },
                {
                    "internalType": "address",
                    "name": "from",
                    "type": "address"
                },
                {
                    "internalType": "uint256",
                    "name": "tokenId",
                    "type": "uint256"
                },
                {
                    "internalType": "bytes",
                    "name": "data",
                    "type": "bytes"
                }
            ],
            "name": "onERC721Received",
            "outputs": [
                {
                    "internalType": "bytes4",
                    "name": "",
                    "type": "bytes4"
                }
            ],
            "stateMutability": "nonpayable",
            "type": "function"
        },
        {
            "inputs": [
                {
                    "internalType": "address",
                    "name": "_NFTAddress",
                    "type": "address"
                },
                {
                    "internalType": "uint256",
                    "name": "_TokenID",
                    "type": "uint256"
                }
            ],
            "name": "sellerApprove",
            "outputs": [],
            "stateMutability": "nonpayable",
            "type": "function"
        },
        {
            "inputs": [
                {
                    "internalType": "address",
                    "name": "_NFTAddress",
                    "type": "address"
                },
                {
                    "internalType": "uint256",
                    "name": "_TokenID",
                    "type": "uint256"
                }
            ],
            "name": "sellerCancel",
            "outputs": [],
            "stateMutability": "nonpayable",
            "type": "function"
        },
        {
            "inputs": [
                {
                    "internalType": "address",
                    "name": "_NFTAddress",
                    "type": "address"
                },
                {
                    "internalType": "uint256",
                    "name": "_TokenID",
                    "type": "uint256"
                }
            ],
            "name": "sellerDecline",
            "outputs": [],
            "stateMutability": "nonpayable",
            "type": "function"
        },
        {
            "inputs": [
                {
                    "internalType": "address",
                    "name": "_NFTAddress",
                    "type": "address"
                },
                {
                    "internalType": "uint256",
                    "name": "_TokenID",
                    "type": "uint256"
                }
            ],
            "name": "sellerDepositNFT",
            "outputs": [],
            "stateMutability": "nonpayable",
            "type": "function"
        },
        {
            "inputs": [
                {
                    "internalType": "address",
                    "name": "",
                    "type": "address"
                },
                {
                    "internalType": "uint256",
                    "name": "",
                    "type": "uint256"
                }
            ],
            "name": "swaps",
            "outputs": [
                {
                    "internalType": "address payable",
                    "name": "sellerAddress",
                    "type": "address"
                },
                {
                    "internalType": "address payable",
                    "name": "buyerAddress",
                    "type": "address"
                },
                {
                    "internalType": "address",
                    "name": "sellerNftAddress",
                    "type": "address"
                },
                {
                    "internalType": "uint256",
                    "name": "sellerTokenID",
                    "type": "uint256"
                },
                {
                    "internalType": "address",
                    "name": "buyerNftAddress",
                    "type": "address"
                },
                {
                    "internalType": "uint256",
                    "name": "buyerTokenID",
                    "type": "uint256"
                }
            ],
            "stateMutability": "view",
            "type": "function"
        }
    ],
    "bytecode": "0x608060405234801561001057600080fd5b50612e27806100206000396000f3fe608060405234801561001057600080fd5b50600436106100935760003560e01c806346753d091161006657806346753d091461011c5780637e2624f514610138578063989d835514610154578063e087699f14610189578063f65f1252146101a757610093565b8063150b7a02146100985780631d60cf81146100c857806327af6080146100e457806332fbf67d14610100575b600080fd5b6100b260048036038101906100ad9190612762565b6101c3565b6040516100bf9190612b3d565b60405180910390f35b6100e260048036038101906100dd91906127e2565b6101d8565b005b6100fe60048036038101906100f991906127e2565b610757565b005b61011a6004803603810190610115919061281e565b610b73565b005b610136600480360381019061013191906127e2565b611032565b005b610152600480360381019061014d91906127e2565b611522565b005b61016e600480360381019061016991906127e2565b61194c565b60405161018096959493929190612a23565b60405180910390f35b610191611a15565b60405161019e9190612b1b565b60405180910390f35b6101c160048036038101906101bc91906127e2565b611f70565b005b600063150b7a0260e01b905095945050505050565b60008060008473ffffffffffffffffffffffffffffffffffffffff1673ffffffffffffffffffffffffffffffffffffffff168152602001908152602001600020600083815260200190815260200160002090508273ffffffffffffffffffffffffffffffffffffffff168160020160009054906101000a900473ffffffffffffffffffffffffffffffffffffffff1673ffffffffffffffffffffffffffffffffffffffff161461028757600080fd5b3373ffffffffffffffffffffffffffffffffffffffff168160000160009054906101000a900473ffffffffffffffffffffffffffffffffffffffff1673ffffffffffffffffffffffffffffffffffffffff16146102e357600080fd5b600073ffffffffffffffffffffffffffffffffffffffff168160040160009054906101000a900473ffffffffffffffffffffffffffffffffffffffff1673ffffffffffffffffffffffffffffffffffffffff16141561034157600080fd5b61037f6040518060400160405280601281526020017f617070726f7665642c2073776170204e465400000000000000000000000000008152506124fc565b8060020160009054906101000a900473ffffffffffffffffffffffffffffffffffffffff1673ffffffffffffffffffffffffffffffffffffffff166342842e0e308360010160009054906101000a900473ffffffffffffffffffffffffffffffffffffffff1684600301546040518463ffffffff1660e01b815260040161040893929190612a84565b600060405180830381600087803b15801561042257600080fd5b505af1158015610436573d6000803e3d6000fd5b505050508060040160009054906101000a900473ffffffffffffffffffffffffffffffffffffffff1673ffffffffffffffffffffffffffffffffffffffff166342842e0e308360000160009054906101000a900473ffffffffffffffffffffffffffffffffffffffff1684600501546040518463ffffffff1660e01b81526004016104c393929190612a84565b600060405180830381600087803b1580156104dd57600080fd5b505af11580156104f1573d6000803e3d6000fd5b505050506000808260040160009054906101000a900473ffffffffffffffffffffffffffffffffffffffff1673ffffffffffffffffffffffffffffffffffffffff1673ffffffffffffffffffffffffffffffffffffffff168152602001908152602001600020600082600501548152602001908152602001600020600080820160006101000a81549073ffffffffffffffffffffffffffffffffffffffff02191690556001820160006101000a81549073ffffffffffffffffffffffffffffffffffffffff02191690556002820160006101000a81549073ffffffffffffffffffffffffffffffffffffffff021916905560038201600090556004820160006101000a81549073ffffffffffffffffffffffffffffffffffffffff0219169055600582016000905550506000808473ffffffffffffffffffffffffffffffffffffffff1673ffffffffffffffffffffffffffffffffffffffff1681526020019081526020016000206000838152602001908152602001600020600080820160006101000a81549073ffffffffffffffffffffffffffffffffffffffff02191690556001820160006101000a81549073ffffffffffffffffffffffffffffffffffffffff02191690556002820160006101000a81549073ffffffffffffffffffffffffffffffffffffffff021916905560038201600090556004820160006101000a81549073ffffffffffffffffffffffffffffffffffffffff0219169055600582016000905550507fb26d2383cb5134df833fc5bb1469e19c35eae02fbdbbdfcaccb1563818e03c3f838360405161074a929190612af2565b60405180910390a1505050565b8173ffffffffffffffffffffffffffffffffffffffff166000808473ffffffffffffffffffffffffffffffffffffffff1673ffffffffffffffffffffffffffffffffffffffff168152602001908152602001600020600083815260200190815260200160002060020160009054906101000a900473ffffffffffffffffffffffffffffffffffffffff1673ffffffffffffffffffffffffffffffffffffffff161461080157600080fd5b3373ffffffffffffffffffffffffffffffffffffffff166000808473ffffffffffffffffffffffffffffffffffffffff1673ffffffffffffffffffffffffffffffffffffffff168152602001908152602001600020600083815260200190815260200160002060000160009054906101000a900473ffffffffffffffffffffffffffffffffffffffff1673ffffffffffffffffffffffffffffffffffffffff16146108ab57600080fd5b60008060008473ffffffffffffffffffffffffffffffffffffffff1673ffffffffffffffffffffffffffffffffffffffff168152602001908152602001600020600083815260200190815260200160002090508060040160009054906101000a900473ffffffffffffffffffffffffffffffffffffffff1673ffffffffffffffffffffffffffffffffffffffff166342842e0e308360010160009054906101000a900473ffffffffffffffffffffffffffffffffffffffff1684600501546040518463ffffffff1660e01b815260040161098793929190612a84565b600060405180830381600087803b1580156109a157600080fd5b505af11580156109b5573d6000803e3d6000fd5b505050506000808260040160009054906101000a900473ffffffffffffffffffffffffffffffffffffffff1673ffffffffffffffffffffffffffffffffffffffff1673ffffffffffffffffffffffffffffffffffffffff168152602001908152602001600020600082600501548152602001908152602001600020600080820160006101000a81549073ffffffffffffffffffffffffffffffffffffffff02191690556001820160006101000a81549073ffffffffffffffffffffffffffffffffffffffff02191690556002820160006101000a81549073ffffffffffffffffffffffffffffffffffffffff021916905560038201600090556004820160006101000a81549073ffffffffffffffffffffffffffffffffffffffff0219169055600582016000905550508060010160006101000a81549073ffffffffffffffffffffffffffffffffffffffff02191690558060040160006101000a81549073ffffffffffffffffffffffffffffffffffffffff021916905580600501600090557f924631409deaae2c4eb14429abd09d56c696028b0ee769b635223e83e62d78b68383604051610b66929190612af2565b60405180910390a1505050565b60008060008673ffffffffffffffffffffffffffffffffffffffff1673ffffffffffffffffffffffffffffffffffffffff168152602001908152602001600020600085815260200190815260200160002090508473ffffffffffffffffffffffffffffffffffffffff168160020160009054906101000a900473ffffffffffffffffffffffffffffffffffffffff1673ffffffffffffffffffffffffffffffffffffffff1614610c2257600080fd5b600073ffffffffffffffffffffffffffffffffffffffff166000808573ffffffffffffffffffffffffffffffffffffffff1673ffffffffffffffffffffffffffffffffffffffff168152602001908152602001600020600084815260200190815260200160002060040160009054906101000a900473ffffffffffffffffffffffffffffffffffffffff1673ffffffffffffffffffffffffffffffffffffffff1614610ccd57600080fd5b338160010160006101000a81548173ffffffffffffffffffffffffffffffffffffffff021916908373ffffffffffffffffffffffffffffffffffffffff160217905550828160040160006101000a81548173ffffffffffffffffffffffffffffffffffffffff021916908373ffffffffffffffffffffffffffffffffffffffff160217905550818160050181905550806000808573ffffffffffffffffffffffffffffffffffffffff1673ffffffffffffffffffffffffffffffffffffffff16815260200190815260200160002060008481526020019081526020016000206000820160009054906101000a900473ffffffffffffffffffffffffffffffffffffffff168160000160006101000a81548173ffffffffffffffffffffffffffffffffffffffff021916908373ffffffffffffffffffffffffffffffffffffffff1602179055506001820160009054906101000a900473ffffffffffffffffffffffffffffffffffffffff168160010160006101000a81548173ffffffffffffffffffffffffffffffffffffffff021916908373ffffffffffffffffffffffffffffffffffffffff1602179055506002820160009054906101000a900473ffffffffffffffffffffffffffffffffffffffff168160020160006101000a81548173ffffffffffffffffffffffffffffffffffffffff021916908373ffffffffffffffffffffffffffffffffffffffff160217905550600382015481600301556004820160009054906101000a900473ffffffffffffffffffffffffffffffffffffffff168160040160006101000a81548173ffffffffffffffffffffffffffffffffffffffff021916908373ffffffffffffffffffffffffffffffffffffffff160217905550600582015481600501559050508273ffffffffffffffffffffffffffffffffffffffff166342842e0e3330856040518463ffffffff1660e01b8152600401610f9c93929190612abb565b600060405180830381600087803b158015610fb657600080fd5b505af1158015610fca573d6000803e3d6000fd5b50505050610ff26040518060600160405280603c8152602001612db6603c9139848433612595565b7f07462fb7702f7a134ae56ec914177421c0d0de0517c279cb6ab163a71a8e5b178383604051611023929190612af2565b60405180910390a15050505050565b60008060008473ffffffffffffffffffffffffffffffffffffffff1673ffffffffffffffffffffffffffffffffffffffff168152602001908152602001600020600083815260200190815260200160002090508273ffffffffffffffffffffffffffffffffffffffff168160040160009054906101000a900473ffffffffffffffffffffffffffffffffffffffff1673ffffffffffffffffffffffffffffffffffffffff16146110e157600080fd5b3373ffffffffffffffffffffffffffffffffffffffff168160010160009054906101000a900473ffffffffffffffffffffffffffffffffffffffff1673ffffffffffffffffffffffffffffffffffffffff161461113d57600080fd5b8273ffffffffffffffffffffffffffffffffffffffff166342842e0e3033856040518463ffffffff1660e01b815260040161117a93929190612abb565b600060405180830381600087803b15801561119457600080fd5b505af11580156111a8573d6000803e3d6000fd5b50505050600073ffffffffffffffffffffffffffffffffffffffff168160000160009054906101000a900473ffffffffffffffffffffffffffffffffffffffff1673ffffffffffffffffffffffffffffffffffffffff16146112c0578060020160009054906101000a900473ffffffffffffffffffffffffffffffffffffffff1673ffffffffffffffffffffffffffffffffffffffff166342842e0e308360000160009054906101000a900473ffffffffffffffffffffffffffffffffffffffff1684600301546040518463ffffffff1660e01b815260040161128d93929190612a84565b600060405180830381600087803b1580156112a757600080fd5b505af11580156112bb573d6000803e3d6000fd5b505050505b6000808260020160009054906101000a900473ffffffffffffffffffffffffffffffffffffffff1673ffffffffffffffffffffffffffffffffffffffff1673ffffffffffffffffffffffffffffffffffffffff168152602001908152602001600020600082600301548152602001908152602001600020600080820160006101000a81549073ffffffffffffffffffffffffffffffffffffffff02191690556001820160006101000a81549073ffffffffffffffffffffffffffffffffffffffff02191690556002820160006101000a81549073ffffffffffffffffffffffffffffffffffffffff021916905560038201600090556004820160006101000a81549073ffffffffffffffffffffffffffffffffffffffff0219169055600582016000905550506000808473ffffffffffffffffffffffffffffffffffffffff1673ffffffffffffffffffffffffffffffffffffffff1681526020019081526020016000206000838152602001908152602001600020600080820160006101000a81549073ffffffffffffffffffffffffffffffffffffffff02191690556001820160006101000a81549073ffffffffffffffffffffffffffffffffffffffff02191690556002820160006101000a81549073ffffffffffffffffffffffffffffffffffffffff021916905560038201600090556004820160006101000a81549073ffffffffffffffffffffffffffffffffffffffff0219169055600582016000905550507fbd431c8c3684bd092896e9588be9eb9cf679d1f5f0417e35988cb0cb1519a4b28383604051611515929190612af2565b60405180910390a1505050565b600073ffffffffffffffffffffffffffffffffffffffff166000808473ffffffffffffffffffffffffffffffffffffffff1673ffffffffffffffffffffffffffffffffffffffff168152602001908152602001600020600083815260200190815260200160002060020160009054906101000a900473ffffffffffffffffffffffffffffffffffffffff1673ffffffffffffffffffffffffffffffffffffffff16146115cd57600080fd5b6115d5612660565b82816040019073ffffffffffffffffffffffffffffffffffffffff16908173ffffffffffffffffffffffffffffffffffffffff16815250508181606001818152505033816000019073ffffffffffffffffffffffffffffffffffffffff16908173ffffffffffffffffffffffffffffffffffffffff16815250508273ffffffffffffffffffffffffffffffffffffffff166342842e0e3330856040518463ffffffff1660e01b815260040161168c93929190612abb565b600060405180830381600087803b1580156116a657600080fd5b505af11580156116ba573d6000803e3d6000fd5b505050506116e26040518060600160405280603c8152602001612db6603c9139848433612595565b806000808573ffffffffffffffffffffffffffffffffffffffff1673ffffffffffffffffffffffffffffffffffffffff168152602001908152602001600020600084815260200190815260200160002060008201518160000160006101000a81548173ffffffffffffffffffffffffffffffffffffffff021916908373ffffffffffffffffffffffffffffffffffffffff16021790555060208201518160010160006101000a81548173ffffffffffffffffffffffffffffffffffffffff021916908373ffffffffffffffffffffffffffffffffffffffff16021790555060408201518160020160006101000a81548173ffffffffffffffffffffffffffffffffffffffff021916908373ffffffffffffffffffffffffffffffffffffffff1602179055506060820151816003015560808201518160040160006101000a81548173ffffffffffffffffffffffffffffffffffffffff021916908373ffffffffffffffffffffffffffffffffffffffff16021790555060a08201518160050155905050600160405180604001604052808573ffffffffffffffffffffffffffffffffffffffff16815260200184815250908060018154018082558091505060019003906000526020600020906002020160009091909190915060008201518160000160006101000a81548173ffffffffffffffffffffffffffffffffffffffff021916908373ffffffffffffffffffffffffffffffffffffffff1602179055506020820151816001015550507f2c372121468137845b8db0b800b91d11ed81b15096669dacfefcd265c398be3e838360405161193f929190612af2565b60405180910390a1505050565b6000602052816000526040600020602052806000526040600020600091509150508060000160009054906101000a900473ffffffffffffffffffffffffffffffffffffffff16908060010160009054906101000a900473ffffffffffffffffffffffffffffffffffffffff16908060020160009054906101000a900473ffffffffffffffffffffffffffffffffffffffff16908060030154908060040160009054906101000a900473ffffffffffffffffffffffffffffffffffffffff16908060050154905086565b60606000805b600180549050811015611b6557600060018281548110611a64577f4e487b7100000000000000000000000000000000000000000000000000000000600052603260045260246000fd5b90600052602060002090600202019050600073ffffffffffffffffffffffffffffffffffffffff166000808360000160009054906101000a900473ffffffffffffffffffffffffffffffffffffffff1673ffffffffffffffffffffffffffffffffffffffff1673ffffffffffffffffffffffffffffffffffffffff16815260200190815260200160002060008360010154815260200190815260200160002060020160009054906101000a900473ffffffffffffffffffffffffffffffffffffffff1673ffffffffffffffffffffffffffffffffffffffff1614611b51578280611b4d90612cfe565b9350505b508080611b5d90612cfe565b915050611a1b565b5060008167ffffffffffffffff811115611ba8577f4e487b7100000000000000000000000000000000000000000000000000000000600052604160045260246000fd5b604051908082528060200260200182016040528015611be157816020015b611bce612660565b815260200190600190039081611bc65790505b5090506000915060005b600180549050811015611f6757600060018281548110611c34577f4e487b7100000000000000000000000000000000000000000000000000000000600052603260045260246000fd5b90600052602060002090600202019050600073ffffffffffffffffffffffffffffffffffffffff166000808360000160009054906101000a900473ffffffffffffffffffffffffffffffffffffffff1673ffffffffffffffffffffffffffffffffffffffff1673ffffffffffffffffffffffffffffffffffffffff16815260200190815260200160002060008360010154815260200190815260200160002060020160009054906101000a900473ffffffffffffffffffffffffffffffffffffffff1673ffffffffffffffffffffffffffffffffffffffff1614611f53576000808260000160009054906101000a900473ffffffffffffffffffffffffffffffffffffffff1673ffffffffffffffffffffffffffffffffffffffff1673ffffffffffffffffffffffffffffffffffffffff1681526020019081526020016000206000826001015481526020019081526020016000206040518060c00160405290816000820160009054906101000a900473ffffffffffffffffffffffffffffffffffffffff1673ffffffffffffffffffffffffffffffffffffffff1673ffffffffffffffffffffffffffffffffffffffff1681526020016001820160009054906101000a900473ffffffffffffffffffffffffffffffffffffffff1673ffffffffffffffffffffffffffffffffffffffff1673ffffffffffffffffffffffffffffffffffffffff1681526020016002820160009054906101000a900473ffffffffffffffffffffffffffffffffffffffff1673ffffffffffffffffffffffffffffffffffffffff1673ffffffffffffffffffffffffffffffffffffffff168152602001600382015481526020016004820160009054906101000a900473ffffffffffffffffffffffffffffffffffffffff1673ffffffffffffffffffffffffffffffffffffffff1673ffffffffffffffffffffffffffffffffffffffff168152602001600582015481525050838581518110611f39577f4e487b7100000000000000000000000000000000000000000000000000000000600052603260045260246000fd5b60200260200101819052508380611f4f90612cfe565b9450505b508080611f5f90612cfe565b915050611beb565b50809250505090565b8173ffffffffffffffffffffffffffffffffffffffff166000808473ffffffffffffffffffffffffffffffffffffffff1673ffffffffffffffffffffffffffffffffffffffff168152602001908152602001600020600083815260200190815260200160002060020160009054906101000a900473ffffffffffffffffffffffffffffffffffffffff1673ffffffffffffffffffffffffffffffffffffffff161461201a57600080fd5b3373ffffffffffffffffffffffffffffffffffffffff166000808473ffffffffffffffffffffffffffffffffffffffff1673ffffffffffffffffffffffffffffffffffffffff168152602001908152602001600020600083815260200190815260200160002060000160009054906101000a900473ffffffffffffffffffffffffffffffffffffffff1673ffffffffffffffffffffffffffffffffffffffff16146120c457600080fd5b60008060008473ffffffffffffffffffffffffffffffffffffffff1673ffffffffffffffffffffffffffffffffffffffff168152602001908152602001600020600083815260200190815260200160002090508273ffffffffffffffffffffffffffffffffffffffff166342842e0e3033856040518463ffffffff1660e01b815260040161215493929190612abb565b600060405180830381600087803b15801561216e57600080fd5b505af1158015612182573d6000803e3d6000fd5b50505050600073ffffffffffffffffffffffffffffffffffffffff168160040160009054906101000a900473ffffffffffffffffffffffffffffffffffffffff1673ffffffffffffffffffffffffffffffffffffffff161461229a578060040160009054906101000a900473ffffffffffffffffffffffffffffffffffffffff1673ffffffffffffffffffffffffffffffffffffffff166342842e0e308360010160009054906101000a900473ffffffffffffffffffffffffffffffffffffffff1684600501546040518463ffffffff1660e01b815260040161226793929190612a84565b600060405180830381600087803b15801561228157600080fd5b505af1158015612295573d6000803e3d6000fd5b505050505b6000808260040160009054906101000a900473ffffffffffffffffffffffffffffffffffffffff1673ffffffffffffffffffffffffffffffffffffffff1673ffffffffffffffffffffffffffffffffffffffff168152602001908152602001600020600082600501548152602001908152602001600020600080820160006101000a81549073ffffffffffffffffffffffffffffffffffffffff02191690556001820160006101000a81549073ffffffffffffffffffffffffffffffffffffffff02191690556002820160006101000a81549073ffffffffffffffffffffffffffffffffffffffff021916905560038201600090556004820160006101000a81549073ffffffffffffffffffffffffffffffffffffffff0219169055600582016000905550506000808473ffffffffffffffffffffffffffffffffffffffff1673ffffffffffffffffffffffffffffffffffffffff1681526020019081526020016000206000838152602001908152602001600020600080820160006101000a81549073ffffffffffffffffffffffffffffffffffffffff02191690556001820160006101000a81549073ffffffffffffffffffffffffffffffffffffffff02191690556002820160006101000a81549073ffffffffffffffffffffffffffffffffffffffff021916905560038201600090556004820160006101000a81549073ffffffffffffffffffffffffffffffffffffffff0219169055600582016000905550507f6856ea23f40172c9e39ce8ec5e0e4a59b5d3bc24223348966fa30a3272c64eef83836040516124ef929190612af2565b60405180910390a1505050565b612592816040516024016125109190612b58565b6040516020818303038152906040527f41304fac000000000000000000000000000000000000000000000000000000007bffffffffffffffffffffffffffffffffffffffffffffffffffffffff19166020820180517bffffffffffffffffffffffffffffffffffffffffffffffffffffffff8381831617835250505050612637565b50565b612631848484846040516024016125af9493929190612b7a565b6040516020818303038152906040527fa366ec80000000000000000000000000000000000000000000000000000000007bffffffffffffffffffffffffffffffffffffffffffffffffffffffff19166020820180517bffffffffffffffffffffffffffffffffffffffffffffffffffffffff8381831617835250505050612637565b50505050565b60008151905060006a636f6e736f6c652e6c6f679050602083016000808483855afa5050505050565b6040518060c00160405280600073ffffffffffffffffffffffffffffffffffffffff168152602001600073ffffffffffffffffffffffffffffffffffffffff168152602001600073ffffffffffffffffffffffffffffffffffffffff16815260200160008152602001600073ffffffffffffffffffffffffffffffffffffffff168152602001600081525090565b6000813590506126fd81612d87565b92915050565b60008083601f84011261271557600080fd5b8235905067ffffffffffffffff81111561272e57600080fd5b60208301915083600182028301111561274657600080fd5b9250929050565b60008135905061275c81612d9e565b92915050565b60008060008060006080868803121561277a57600080fd5b6000612788888289016126ee565b9550506020612799888289016126ee565b94505060406127aa8882890161274d565b935050606086013567ffffffffffffffff8111156127c757600080fd5b6127d388828901612703565b92509250509295509295909350565b600080604083850312156127f557600080fd5b6000612803858286016126ee565b92505060206128148582860161274d565b9150509250929050565b6000806000806080858703121561283457600080fd5b6000612842878288016126ee565b94505060206128538782880161274d565b9350506040612864878288016126ee565b92505060606128758782880161274d565b91505092959194509250565b600061288d838361298a565b60c08301905092915050565b6128a281612c95565b82525050565b6128b181612c2d565b82525050565b6128c081612c2d565b82525050565b6128cf81612c1b565b82525050565b6128de81612c1b565b82525050565b60006128ef82612bd6565b6128f98185612bf9565b935061290483612bc6565b8060005b8381101561293557815161291c8882612881565b975061292783612bec565b925050600181019050612908565b5085935050505092915050565b61294b81612c3f565b82525050565b600061295c82612be1565b6129668185612c0a565b9350612976818560208601612ccb565b61297f81612d76565b840191505092915050565b60c0820160008201516129a060008501826128a8565b5060208201516129b360208501826128a8565b5060408201516129c660408501826128c6565b5060608201516129d96060850182612a05565b5060808201516129ec60808501826128c6565b5060a08201516129ff60a0850182612a05565b50505050565b612a0e81612c8b565b82525050565b612a1d81612c8b565b82525050565b600060c082019050612a3860008301896128b7565b612a4560208301886128b7565b612a5260408301876128d5565b612a5f6060830186612a14565b612a6c60808301856128d5565b612a7960a0830184612a14565b979650505050505050565b6000606082019050612a9960008301866128d5565b612aa66020830185612899565b612ab36040830184612a14565b949350505050565b6000606082019050612ad060008301866128d5565b612add60208301856128d5565b612aea6040830184612a14565b949350505050565b6000604082019050612b0760008301856128d5565b612b146020830184612a14565b9392505050565b60006020820190508181036000830152612b3581846128e4565b905092915050565b6000602082019050612b526000830184612942565b92915050565b60006020820190508181036000830152612b728184612951565b905092915050565b60006080820190508181036000830152612b948187612951565b9050612ba360208301866128d5565b612bb06040830185612a14565b612bbd60608301846128d5565b95945050505050565b6000819050602082019050919050565b600081519050919050565b600081519050919050565b6000602082019050919050565b600082825260208201905092915050565b600082825260208201905092915050565b6000612c2682612c6b565b9050919050565b6000612c3882612c6b565b9050919050565b60007fffffffff0000000000000000000000000000000000000000000000000000000082169050919050565b600073ffffffffffffffffffffffffffffffffffffffff82169050919050565b6000819050919050565b6000612ca082612ca7565b9050919050565b6000612cb282612cb9565b9050919050565b6000612cc482612c6b565b9050919050565b60005b83811015612ce9578082015181840152602081019050612cce565b83811115612cf8576000848401525b50505050565b6000612d0982612c8b565b91507fffffffffffffffffffffffffffffffffffffffffffffffffffffffffffffffff821415612d3c57612d3b612d47565b5b600182019050919050565b7f4e487b7100000000000000000000000000000000000000000000000000000000600052601160045260246000fd5b6000601f19601f8301169050919050565b612d9081612c1b565b8114612d9b57600080fd5b50565b612da781612c8b565b8114612db257600080fd5b5056fe4e465420617420257320772f20494420257320686173206265656e206465706f736974656420746f207468697320636f6e7472616374206279202573a264697066735822122020ec2d4e51f210fd138cb4627b13109072bf203b5cc7296a03e2e90ce0e986e764736f6c63430008040033",
    "linkReferences": {},
    "deployedLinkReferences": {}
}